:020000040800F2
:100000001004002085380008913600089336000857
:100010009536000897360008993600080000000061
:10002000000000000000000000000000E7350008AC
:100030009B36000800000000A13500089D3600082E
:10004000CD380008D1380008D5380008D938000864
:10005000DD380008E1380008E5380008E938000814
:10006000ED380008F1380008F5380008F9380008C4
:10007000FD3800080139000805390008A5360008D8
:10008000AF360008093900080D390008B9360008F4
:10009000C3360008CD3600081139000815390008AC
:1000A000193900081D3900082139000825390008D0
:1000B000D7360008293900082D39000831390008E1
:1000C00035390008393900083D3900084139000840
:1000D00045390008493900084D39000851390008F0
:1000E00055390008593900085D390008F8B5040091
:1000F000002500260027002C01D10120A8E094F85B
:100100003C00002805D1002084F83D00200000F0CC
:1001100071FD022084F83C00206800687FF0020135
:100120000840216808602068006850F001002168DC
:10013000086000F078FE060020684068C0070CD414
:1001400000F071FE801B0B28F6D3032084F83C00DE
:10015000002084F83D0003207AE020684068C00752
:1001600069D5A069012802D157F0800702E07FF02D
:1001700080000740E069012802D157F0400702E003
:100180007FF040000740206A012802D157F0200785
:1001900002E07FF020000740606A012802D157F09A
:1001A000100702E07FF010000740A06A012802D18A
:1001B00057F0080702E07FF008000740E06A0128D6
:1001C00002D157F0040702E07FF0040007402068E6
:1001D00000687FF0FC010840384321680860A0688F
:1001E000E168084321690843616908436168491E61
:1001F00008432168C8612068006840084000216801
:10020000086000F010FE060020684068C0070CD5AA
:1002100000F009FE801B0B28F6D3032084F83C0075
:10022000002084F83D00032012E020684068C007E9
:1002300001D401200500012D06D1002020640120F9
:1002400084F83C00002003E0042084F83C000120F6
:10025000F2BD30B40200002301204C69A04003002D
:100260001068D0F8000230F47C504C6A50EA042048
:1002700050F001001468C4F800021068D0F81C02A5
:1002800098431468C4F81C02C86900281CD110687F
:10029000D0F80C0298431468C4F80C0210684C693A
:1002A00000EBC400CC684D68ADB255EA0444C0F818
:1002B000404210684C6900EBC4008C680D68ADB218
:1002C00055EA0444C0F84442C86901281CD11068AA
:1002D000D0F80C0218431468C4F80C0210684C697A
:1002E00000EBC4000C684D68ADB255EA0444C0F898
:1002F000404210684C6900EBC4008C68CD68ADB218
:1003000055EA0444C0F844428869002807D11068BF
:10031000D0F8040298431468C4F8040206E0106898
:10032000D0F8040218431468C4F8040208690028CD
:1003300007D11068D0F8140298431468C4F8140266
:1003400006E01068D0F8140218431468C4F81402C8
:10035000086A012806D11068D0F81C0218431468F6
:10036000C4F81C021068D0F800024008400014686D
:10037000C4F80002002030BC704710B40100042211
:1003800008688068400108D408688068000104D4C7
:1003900008688068C00040F1C78091F83D000128DE
:1003A00001D10220C4E0012081F83D000868806886
:1003B000400102D50020020008E0086880680001C2
:1003C00002D50120020001E00220020008681301AA
:1003D0001844D0F8800110F001000B681401234488
:1003E000C3F88001086B8068002811D108681301E8
:1003F0001844D0F880010B6B1B680C6BE46854EA5E
:10040000435318430B6814012344C3F8800113E0DD
:10041000086813011844D0F880010B6B5B680C6B03
:10042000A46854EAC3030C6BE468234318430B68C5
:1004300014012344C3F88001086B007C10F00F0006
:100440000B6B1861086813011844D0F88401000987
:1004500000010B6814012344C3F8840108681301E8
:100460001844D0F884010B6B1B6918430B68140106
:100470002344C3F88401086BC07D0B6B9B7D1B0478
:1004800053EA00600B6B5B7D50EA03200B6B1B7D16
:1004900018430B6814012344C3F88801086BC07E1D
:1004A0000B6B9B7E1B0453EA00600B6B5B7E50EA78
:1004B00003200B6B1B7E18430B6814012344C3F805
:1004C0008C0191F83C00222804D0322806D0622802
:1004D00008D00BE0422081F83C000AE0522081F86D
:1004E0003C0006E0722081F83C0002E0122081F816
:1004F0003C0000200864002081F83D0008681301DA
:100500001844D0F8800150F001000B681401234416
:10051000C3F880010868406940F40F4050F00100C2
:100520000B685861002003E0042081F83C000120A2
:1005300010BC70470200C9B2002911D192F83C00EA
:1005400022280BD092F83C00422807D092F83C00B9
:10055000622803D092F83C00722801D102206FE09B
:10056000C9B2012911D192F83C0032280BD092F87F
:100570003C00522807D092F83C00622803D092F841
:100580003C00722801D102205AE092F83D00012877
:1005900001D1022054E0012082F83D00C9B20029B7
:1005A00018D192F83C00122804D0322806D05228E4
:1005B00008D00BE0422082F83C0023E0622082F861
:1005C0003C001FE0722082F83C001BE0222082F8F1
:1005D0003C0017E092F83C00122804D0222806D0F4
:1005E000422808D00BE0522082F83C000AE062204A
:1005F00082F83C0006E0722082F83C0002E03220E3
:1006000082F83C00002010641068406940F40F40FC
:1006100050F0010013685861002082F83D00C9B213
:10062000002906D11068406950F00A00136858612B
:1006300005E01068406950F05000136858610020D0
:1006400070472DE9F04104000025002600275FF0E7
:1006500000082068C068000910F00100050020684B
:100660004069C0F3C00010F001000600002D06D064
:10067000002E04D058F4007810202168C86020684B
:100680000069000910F00100050020684069C0F30E
:10069000801010F001000600002D06D0002E04D0BE
:1006A00058F4806810202168086120684069C007FC
:1006B00044D520688068984908409749884201D10C
:1006C000012500E00025206880689449084093498E
:1006D000884201D1012600E0002620688068904908
:1006E00008408F49884201D1012700E0002756EADF
:1006F00005003843002821D020688068400810F0A9
:100700000100050020688068400A10F00100060022
:100710002068806810F00100070056EA05003843A1
:10072000002803D0200000F003F901E058F400682D
:10073000206880687B490843216888602068C06819
:1007400010F00300050020684069C0F3400010F07D
:1007500001000600002D05D0002E03D0002120004E
:1007600000F015F92068006910F00300050020680A
:100770004069C0F3001010F001000600002D05D004
:10078000002E03D00121200000F001F9206C58EA6E
:10079000000020642068806910F0010005002068D6
:1007A0004069C0F3002010F0010006002068406995
:1007B000C0F3C03010F001000700002D07D0002E5C
:1007C00005D0002F03D0206C50F001002064206879
:1007D0008069400810F00100050020684069C0F3FE
:1007E000402010F00100060020684069C0F3C030CE
:1007F00010F001000700002D07D0002E05D0002FBB
:1008000003D0206C50F002002064206880698008CA
:1008100010F00100050020684069C0F3802010F04E
:100820000100060020684069C0F3C03010F00100EC
:100830000700002D07D0002E05D0002F03D0206C1C
:1008400050F0040020642068806910F0700F01D11E
:10085000012500E0002520684069C0F3C02010F0A9
:100860000100060020684069C0F3C03010F00100AC
:100870000700002D3BD1002E39D0002F37D0206843
:10088000806910F070000500280010280AD0202888
:100890000DD0302810D0402813D0502816D0602812
:1008A00019D01DE0206C50F00800206418E0206C86
:1008B00050F01000206413E0206C50F02000206401
:1008C0000EE0206C50F04000206409E0206C50F0F5
:1008D0008000206404E0206C50F480702064FFE706
:1008E000206880697FF07001084021688861206C71
:1008F00000280ED0042021684860012084F83C00C4
:10090000206840690849084021684861200000F0DB
:100910000EF8BDE8F08100000100000400010008AD
:100920000000011009050100A470FFFF7047704727
:1009300010B5040020684069400840002168486103
:1009400094F83C00122805D12068406930F40F402B
:100950002168486194F83C00422804D0522806D00F
:10096000722808D00BE0222084F83C000AE03220F4
:1009700084F83C0006E0622084F83C0002E001209C
:1009800084F83C002000FFF7D1FF002010BDF8B52F
:1009900004000D0000260027EDB2002D02D1606B8F
:1009A000070001E0A06B07002068EDB229010844B0
:1009B000D0F8B00110F00400B860B868002808D181
:1009C0002068EDB229010844D0F8B001400D38602C
:1009D00007E02068EDB229010844D0F8B001C00852
:1009E00078602068EDB229010844D0F8B00110F019
:1009F0000200F8602068EDB229010844D0F8B40183
:100A000010F00F003861EDB23D622068EDB22901AF
:100A10000844D0F8B401C0F30720F8612068EDB2B3
:100A200029010844D0F8B80138752068EDB22901D1
:100A30000844D0F8B801000A78752068EDB22901A1
:100A40000844D0F8B801000CB8752068EDB229014F
:100A50000844D0F8B801000EF8752068EDB22901FD
:100A60000844D0F8BC0138762068EDB2290108446A
:100A7000D0F8BC01000A78762068EDB2290108445C
:100A8000D0F8BC01000CB8762068EDB2290108440A
:100A9000D0F8BC01000EF876EDB2002D0AD120206E
:100AA0002168C860206840697FF00A010840216819
:100AB000486109E0202021680861206840697FF0D2
:100AC000500108402168486194F83C000600222E3D
:100AD00001D0322E05D12068406930F40F402168E2
:100AE0004861EDB2002D18D194F83C00422804D0A2
:100AF000622806D0722808D00BE0122084F83C004F
:100B000023E0322084F83C001FE0522084F83C00AF
:100B10001BE0012084F83C0017E094F83C005228C8
:100B200004D0622806D0722808D00BE0122084F886
:100B30003C000AE0222084F83C0006E0422084F8D1
:100B40003C0002E0012084F83C00200000F014FA90
:100B50000020F2BD80B59A48006850F00100984925
:100B600008609748006810F00100009000989548D0
:100B7000006850F08050934908609248006810F077
:100B8000805000900098032000F06AFA00220021B3
:100B90007FF00B0000F06AFA002200217FF00A00CB
:100BA00000F064FA002200217FF0090000F05EFAF4
:100BB000002200217FF0040000F058FA00220021FA
:100BC0007FF0030000F052FA00220F217FF00100B5
:100BD00000F04CFA00220F215FF0FF3000F046FADF
:100BE00079490968080030F0E06050F000707649FB
:100BF000086001BD10B586B00400206873498842C2
:100C000039D17048006850F000706E4908606D4836
:100C1000006810F00070009000984FF400600190A0
:100C2000002002900020039001A9694800F060FABA
:100C30004FF480500190022002900320049001A9FB
:100C4000634800F055FA00220521132000F00EFA47
:100C5000132000F01EFA00220521142000F006FAED
:100C6000142000F016FA00220521152000F0FEF9EC
:100C7000152000F00EFA06B010BD10B586B00400C5
:100C80002068544988424FD14D48006850F4804054
:100C90004B4908604A48006810F480400090009872
:100CA00040200190022002900320049001A94A48AC
:100CB00000F01EFA80200190002002900020039096
:100CC00001A9454800F014FA3F490968080050F0AE
:100CD000E06050F004003C4908604048404908602A
:100CE00000203F49486000203D49886080203C4901
:100CF000C86000203A490861002039494861202035
:100D0000374988614FF480503549C861344800F054
:100D100077FB002803D0CF21324800F0F2FE3048A4
:100D200060632F48446248E020682F49884244D1DC
:100D30002448006850F400302249086021480068C7
:100D400010F40030009000980420019002200290DE
:100D50000320049001A91E4800F0CAF90820019060
:100D6000002002900020039001A9194800F0C0F96A
:100D70001E481F49086000201D49486000201C498A
:100D8000886080201A49C860002019490861002045
:100D90001749486120201649886100201449C8611C
:100DA000134800F02DFB002803D0FA210D4800F075
:100DB000A8FE0F4860630E48446206B010BD0000F4
:100DC000181002401C100240040001400064004062
:100DD0000008014000380140000C0140580002406A
:100DE000E014002030370008004400406C0002404E
:100DF0002415002080B50D48006850F010000B4904
:100E00000860032000F02CF9002000F07BFEFFF7C3
:100E1000A1FE002002BD07480068054909780818AE
:100E2000044908607047034800687047002002408A
:100E30000B0000202017002010B504000120A08026
:100E40000A20206000F0A6FE0FF2411020620FF28F
:100E50003910606210BD2DE9F8430400002501201F
:100E60004349096B08754248FFF787FA01224FF49E
:100E70000071404800F099FAEDB2002D49D1FFF71A
:100E8000D2FF06003A48406B007D022806D0FFF7EB
:100E9000CAFF801BB0F5FA7FF4D940E00320344943
:100EA000096B087500203249096B48752068000EEF
:100EB0002F49096B88752068000C2D49096BC8758E
:100EC0002068000A2A49096B087620682849096BBE
:100ED0004876A08880B2000A2549096B8876A088E8
:100EE0002349096BC8762248FFF747FAA088401CBF
:100EF000A0802068401C206008275FF000081C4884
:100F0000406B10F1140942463900484600F05AFE81
:100F1000B2E700224FF40071164800F046FABDE82F
:100F2000F18338B504000D0004201149096B0875E0
:100F300000200F49096B487500200D49096B887521
:100F400000200B49096BC87500200949096B087618
:100F50000748006B4576200080B2000A0449096BFF
:100F600088760348006BC4760148FFF706FA31BD66
:100F70009C1400200008014010B50400002120004E
:100F8000FFF7D8FA10BD000070470000704701025B
:100F900010F007024E4B1B6819004FF6FF03194073
:100FA0004C4B53EA02231943494B19607047484898
:100FB0000068C0F302207047012110F01F02914029
:100FC000454A40B2430942F82310704710B440B27A
:100FD000002808D50A01414B40B210F00F04234409
:100FE00003F8042C03E00A013D4B40B21A5410BC34
:100FF000704770B4030013F00704D4F10706052E00
:1010000001D3042001E0D4F10700261D072E01D2F0
:10101000002500E0E51E012616FA00F0401E0840FB
:10102000A8400121A940491E1140084370BC7047E7
:1010300010B50400601EB0F1807F01D301200EE0E6
:10104000601E284908600F215FF0FF30FFF7BEFFE8
:10105000002025490860072024490860002010BDB1
:1010600010B504002000FFF793FF10BDF8B5040091
:101070000D0016000027FFF79AFF07003200290035
:101080003800FFF7B6FF0100200040B2FFF79EFFD7
:10109000F1BD10B50400200040B2FFF78DFF10BD78
:1010A00010B504002000FFF7C3FF10BD042806D1CF
:1010B0000E49096851F004010C4A116006E00B4921
:1010C00009687FF004021140084A1160704700006F
:1010D0000CED00E00000FA0500E100E018ED00E092
:1010E00000E400E014E000E018E000E010E000E0C0
:1010F0002DE9F84100230024002500265FF0000EB2
:101100005FF0000C6246102A80F04D815FF0010C08
:101110001CFA02FC6346D1F800C013EA0C0C6446CA
:101120009C4240F03E81D1F804C0BCF1000F3DD09C
:10113000BCF1010F24D0BCF1020F2BD0BCF1030F86
:101140004CD0BCF1110F1FD0BCF1120F28D0DFF82A
:101150007082C4452AD0DFF86C82C44526D0DFF8FF
:101160006882C44522D0DFF86482C4451ED0DFF80F
:101170006082C4451AD0DFF85C82C44516D031E0E5
:10118000D1F80CC066462DE0D1F80CC01CF1040C5F
:10119000664627E0D1F80CC01CF1080C664621E039
:1011A000D1F80CC01CF10C0C66461BE0D1F808C04D
:1011B000BCF1000F03D15FF0040C66460DE0D1F8DE
:1011C00008C0BCF1010F04D15FF0080C6646036152
:1011D00003E05FF0080C6646436103E05FF0000C3B
:1011E0006646FFE7FF2C01D8070000E0071DFF2C33
:1011F00002D85FEA820E03E0B2F1080C5FEA8C0EBF
:10120000D7F800C05FF00F0818FA0EF83CEA080C97
:1012100016FA0EF858EA0C0CC7F800C0D1F804C052
:101220005FEACC0C40F1BD80DFF8ACC1DCF800C057
:101230005CF0010CDFF8A081C8F800C0DFF898C1AD
:10124000DCF800C01CF00108CDF80080DDF800C01B
:10125000DFF888C15FEA92085CF828C065465FF055
:101260000F0C12F003085FFA88F85FEA88081CFA8E
:1012700008FC35EA0C05DFF868C1604502D15FF073
:10128000000C16E0DFF85CC1604502D15FF0010C94
:101290000FE0DFF854C1604502D15FF0020C08E0B6
:1012A000DFF848C1604502D15FF0030C01E05FF058
:1012B000040C12F003085FFA88F85FEA88081CFA49
:1012C00008FC5CEA0505DFF814C15FEA92084CF8F7
:1012D0002850D1F804C05FEACC3C0AD5DFF810C131
:1012E000DCF800C054EA0C0CDFF80481C8F800C038
:1012F00009E0DFF8FCC0DCF800C03CEA040CDFF8D1
:10130000F080C8F800C0D1F804C05FEA8C3C0AD570
:10131000DFF8E0C0DCF800C054EA0C0CDFF8D48041
:10132000C8F800C009E0DFF8CCC0DCF800C03CEA37
:10133000040CDFF8C080C8F800C0D1F804C05FEA30
:10134000CC2C0AD5DFF8B0C0DCF800C054EA0C0C95
:10135000DFF8A480C8F800C009E0DFF89CC0DCF822
:1013600000C03CEA040CDFF89080C8F800C0D1F857
:1013700004C05FEA8C2C0AD5DFF880C0DCF800C01E
:1013800054EA0C0CDFF87480C8F800C009E0DFF8FC
:101390006CC0DCF800C03CEA040CDFF86080C8F8E0
:1013A00000C0521CAFE6BDE8F181D2B2002A02D0E3
:1013B00089B2016102E089B20B0403617047000049
:1013C0000000111000001210000021100000221077
:1013D00000003110000032101810024008000140D7
:1013E00000080140000C01400010014000140140C1
:1013F0000004014004040140080401400C040140C1
:1014000001000022002901D1012034E00868DFF842
:10141000743218181423B0FBF3F080000864DFF86E
:101420006802C863022081F8210008680068020091
:101430006FF30D1248688B681843CB6818430B692B
:1014400018434B6918438B691843CB69184302430F
:1014500008680260002088620020C86200200863DB
:101460000020486300208863012081F821000020CB
:1014700081F82000002070472DE9F04104000D00A4
:1014800016001F005FF0000894F82000012801D129
:1014900002203CE0012084F8200094F8210001287B
:1014A0002ED1022084F821000020A063206800686B
:1014B00040084000216808603B00320029002000FD
:1014C00000F0F2F8E06A002806D02068006850F0CA
:1014D0000E00216808600CE0206800687FF00401BD
:1014E0000840216808602068006850F00A00216800
:1014F00008602068006850F001002168086004E07E
:10150000002084F82000022080464046C0B2BDE89A
:10151000F08170B50400E06B05682068066804205F
:10152000216C884005423FD070073DD52068006897
:10153000800606D4206800687FF004010840216816
:10154000086020685149884201D1042023E02068C6
:101550004F49884201D140201DE020684D49884212
:1015600002D14FF4806016E020684B49884202D1D6
:101570004FF480400FE020684849884202D15FF470
:10158000802008E020684649884202D15FF480004C
:1015900001E05FF0806043490860E06A00286FD096
:1015A0002000E16A88476BE00220216C88400542F8
:1015B00045D0B00743D520680068800609D420686C
:1015C00000687FF00A01084021680860012084F863
:1015D000210020682D49884201D1022023E02068A3
:1015E0002B49884201D120201DE0206829498842EA
:1015F00002D14FF4007016E020682749884202D1DA
:101600004FF400500FE020682449884202D15FF473
:10161000003008E020682249884202D15FF40010BF
:1016200001E05FF000701F490860002084F820008E
:10163000A06A002824D02000A16A884720E0082062
:10164000216C884005421BD0300719D520680068FE
:101650007FF00E010840216808600120216C88405D
:10166000E16B48600120A063012084F82100002084
:1016700084F82000206B002802D02000216B8847CE
:1016800070BD0000F8FFFDBF0000024008000240EE
:101690001C0002403000024044000240580002405A
:1016A0006C0002400400024030B40124056CAC40E0
:1016B000C56B6C60046863604468102C04D10468D6
:1016C000A2600468E16003E00468A1600468E2606D
:1016D00030BC704700B585B0FFF78CFB00F025F8F3
:1016E00000F001F900F0E1F800F064F800F093F880
:1016F00000F0B6F800F06AF9DFF8A003FFF79CFBF2
:101700000021DFF89C03FEF715FF6846DFF894130D
:10171000142200F08BFA0021684600F0C1FADFF8CD
:101720008813086000F0B7FAFEE700B58FB001201B
:1017300005905FF48030069000200790012009900A
:1017400002200C905FF480300D905FF4E0100E905A
:1017500005A800F0C5FA002804D0C421DFF84C0326
:1017600000F0CFF90F20009002200190002002909D
:101770004FF480600390002004900221684600F03E
:10178000DEFC002803D0D221C84800F0BAF900F0EE
:10179000D5FD4FF47A71B0FBF1F0FFF781FC042026
:1017A000FFF784FC00220F215FF0FF30FFF75EFCA3
:1017B0000FB000BD80B5BE48B94908601220B849D5
:1017C00048600020B64988600020B549C8605FF4D1
:1017D0004020B34908615FF48010B149486100209E
:1017E000AF4988610120AE49C8610120AC49086257
:1017F0000120AB4948620020A94988620020A8491D
:10180000C862A748FEF772FC002803D0F321A7485E
:1018100000F077F901BD80B5A648A74908605FF4DC
:10182000E130A54948600020A34988600020A24912
:10183000C8600020A04908610C209F494861002031
:101840009D49886100209C49C8619B4800F0E2FDE9
:10185000002804D04FF48371944800F052F901BD80
:1018600080B59648964908605FF4E1309449486035
:1018700000209349886000209149C8600020904969
:1018800008610C208E49486100208D498861002044
:101890008B49C8618A4800F0BDFD002804D040F2A1
:1018A0001911824800F02DF901BD80B58548006806
:1018B00050F00100834908608248006810F0010080
:1018C00000900098002205210F20FFF7CFFB0F208A
:1018D000FFF7DFFB002205211020FFF7C7FB1020D8
:1018E000FFF7D7FB01BD00B585B07748006850F021
:1018F0001000754908607448006810F010000090EE
:1019000000987148006850F020006F4908606E48E8
:10191000006810F02000009000986B48006850F0BC
:101920000400694908606848006810F004000090ED
:1019300000986548006850F00800634908606248F4
:10194000006810F008000090009800224FF4005149
:101950005E48FFF72AFD002280215D48FFF725FD44
:1019600001224FF400715A48FFF71FFD4FF4005059
:10197000019001200290002003900220049001A910
:101980005248FFF7B5FB0120019000200290022091
:10199000039001A94E48FFF7ABFB4FF42070019074
:1019A00001200290002003900220049001A94848E1
:1019B000FFF79EFB0320019000200290012003907E
:1019C00001A94448FFF794FB05B000BD00B58BB0FA
:1019D00041483349086301203149096B48600820B8
:1019E0002F49096B086104202D49096B886000208C
:1019F0002B49096BC86039482949486301202849A7
:101A0000496B486008202649496B08610420244935
:101A1000496B886000202249496BC860002005900E
:101A200000200690012007900020009000200190E7
:101A300000200290002003900020049001200890D4
:101A40000E20099069461648FEF703FC0BB000BD56
:101A500010B504002248006800280FD0002020495B
:101A60000860012280211A48FFF79FFC0B48FFF70E
:101A7000F2F9002280211648FFF797FC19480078F8
:101A80000028E7D000201749087017480178174848
:101A9000007880B2FFF745FADCE700002816002046
:101AA0009C140020503800081417002068370008E4
:101AB00000640040003801406815002000440040E8
:101AC000A815002014100240181002400010014018
:101AD00000080140000C0140741600205016002040
:101AE000181700200A00002009000020080000202C
:101AF00010B504002068B0F1804F01D1FFF78BF9D9
:101B000010BDFEE770B588B0040000250026002255
:101B100021001C20FFF7AAFA1C20FFF7BAFA1A4886
:101B2000006850F00100184908601748006810F07C
:101B300001000090009801A902A800F018FC00F034
:101B400000FC400005001148B5FBF0F0401E060007
:101B50005FF080400E49086040F2E7300C49C860F1
:101B60000B48466000200A49086100200849886047
:101B7000074800F031FE002803D1054800F049FE77
:101B800000E0012008B070BD1C10024040420F0070
:101B9000E815002080B5074808490860054806494F
:101BA00008604FF480620349054800F06FFC01BDF6
:101BB000000000001010002000170020FC1600207C
:101BC0006815002062F30F2262F31F42401810F0E4
:101BD000030308D0C91A1FD3DB0748BF00F8012D43
:101BE00028BF20F8022D130030B4144615461039D2
:101BF00028BF20E93C00FAD8490728BF20E90C009B
:101C000048BF40F8042D890028BF20F8022D48BFA6
:101C100000F8012D30BC7047C91818BF00F8012D1D
:101C2000CB0728BF00F8012D70470000103A07D3FA
:101C300030B4B1E83810103AA0E83810F9D230BC0E
:101C4000530724BFB1E80810A0E8081044BF51F8BA
:101C5000043B40F8043BD20724BF31F8022B20F8A4
:101C6000022B44BF0B7803707047083A07D3B1E8E2
:101C70000810083A40F8043B40F804CBF7D2530769
:101C8000E4E700000100002009B2842902D009B273
:101C9000CA1C1018704780B500F0C8FF002002BDB4
:101CA0003EB504000D00B4F90800FFF7EBFF02A9F0
:101CB000019100902B00226992B22168606800F0C7
:101CC000B3FE012801D0002000E002983EBD80B59F
:101CD00001F0DCF9012801D001F0B7FA01BD0000E4
:101CE00070B582B0040000252078C00740F18480E0
:101CF000DFF8E006006810F00C0004280BD0DFF8D5
:101D0000D406006810F00C0008280ED1DFF8C406D5
:101D10000068C00309D5DFF8B806006880036BD5FA
:101D20006068002868D1012008E26068B0F5803F53
:101D300008D1DFF89C06006850F48030DFF8901678
:101D4000086038E06068002810D1DFF88406006879
:101D500030F48030DFF878160860DFF87406006829
:101D600030F48020DFF86816086024E06068B0F581
:101D7000A02F10D1DFF85806006850F48020DFF85B
:101D800050160860DFF84806006850F48030DFF82D
:101D9000401608600FE0DFF83806006830F4803045
:101DA000DFF82C160860DFF82806006830F4802081
:101DB000DFF81C160860606800280ED0FFF733F8C3
:101DC0000500DFF80C060068800315D4FFF72BF838
:101DD000401B6528F5D30320B0E1FFF724F8050088
:101DE000DFF8EC050068800306D5FFF71CF8401B00
:101DF0006528F5D30320A1E1207880075ED5DFF8C0
:101E0000D405006810F00C0F0BD0DFF8C80500688F
:101E100010F00C0008281BD1DFF8B8050068C003DB
:101E200016D4DFF8AC050068800704D520690128C6
:101E300001D0012082E1DFF8980500687FF0F80109
:101E40000840616950EAC100DFF88415086035E098
:101E5000206900281FD00120DFF888150860FEF7F0
:101E6000E2FF0500DFF868050068800706D4FEF78A
:101E7000DAFF401B0328F5D303205FE1DFF85005AC
:101E800000687FF0F8010840616950EAC100DFF89E
:101E90004015086012E00020DFF848150860FEF7E2
:101EA000C2FF0500DFF828050068800706D5FEF7A9
:101EB000BAFF401B0328F5D303203FE12078000739
:101EC0002CD5A069002816D00120DFF81C15086069
:101ED000FEF7A9FF0500DFF808050068800706D4B3
:101EE000FEF7A1FF401B0328F5D3032026E10120C4
:101EF00000F05AFA12E00020DFF8EC140860FEF758
:101F000092FF0500DFF8D8040068800706D5FEF7C9
:101F10008AFF401B0328F5D303200FE120784007F8
:101F200040F1A9800026DFF8C4040068C00010D486
:101F3000DFF8B804006850F08050DFF8B014086093
:101F4000DFF8A804006810F080500090009801208D
:101F50000600DFF89C040068C00516D4DFF8900482
:101F6000006850F48070DFF888140860FEF75BFFAB
:101F70000500DFF87C040068C00506D4FEF753FFB7
:101F8000401B6528F5D30320D8E0E068012808D17C
:101F9000DFF86004006850F00100DFF858140860B2
:101FA00039E0E068002811D1DFF8480400684008F3
:101FB0004000DFF840140860DFF8380400687FF064
:101FC00004010840DFF82C14086024E0E0680528CC
:101FD00010D1DFF82004006850F00400DFF814147A
:101FE0000860DFF81004006850F00100DFF8041406
:101FF000086010E0DFF8FC03006840084000DFF8EC
:10200000F4130860DFF8EC0300687FF00401084077
:10201000DFF8E0130860E068002810D0FEF703FF47
:102020000500DFF8D0030068800719D4FEF7FBFE37
:10203000401B41F289318842F3D303207EE0FEF752
:10204000F2FE0500DFF8AC030068800708D5FEF754
:10205000EAFE401B41F289318842F3D303206DE050
:10206000F6B2012E07D1DFF88403006830F080500B
:10207000DFF878130860E06900285ED0DFF85403C9
:10208000006810F00C00082855D0E06902283FD104
:102090000020DFF864130860FEF7C5FE0500DFF8D6
:1020A00030030068800106D5FEF7BDFE401B032803
:1020B000F5D3032042E0206AB0F5803F09D1DFF874
:1020C0001403006830F40030A1680843DFF80413FB
:1020D0000860DFF80003006830F47410216A0843D8
:1020E000616A0843DFF8EC1208600120DFF808138A
:1020F0000860FEF798FE0500DFF8D4020068800152
:102100001BD4FEF790FE401B0328F5D3032015E0F7
:102110000020DFF8E4120860FEF785FE0500DFF816
:10212000B0020068800108D5FEF77DFE401B032841
:10213000F5D3032002E0012000E0002076BD70B559
:1021400004000D000026DFF8B402006810F007005C
:10215000A84211D2DFF8A4020068C008C0002843DA
:10216000DFF898120860DFF89402006810F00700AA
:10217000A84201D00120A4E0207880070AD5DFF82A
:10218000540200687FF0F0010840A1680843DFF8BE
:10219000441208602078C00758D56068012806D12D
:1021A000DFF82C020068800312D4012089E0606807
:1021B000022806D1DFF818020068800108D4012047
:1021C0007FE0DFF80C020068800701D4012078E08E
:1021D000DFF80002006880088000616808437D49DC
:1021E0000860FEF720FE0600606801280ED17948DD
:1021F000006810F00C00042828D0FEF714FE801BA5
:1022000041F289318842F2D303205AE06068022803
:102210000ED17048006810F00C00082816D0FEF7A8
:1022200002FE801B41F289318842F2D3032048E04C
:102230006848006810F00C0F08D0FEF7F4FD801B12
:1022400041F289318842F3D303203AE06B480068B9
:1022500010F0070085420ED268480068C008C00030
:102260002843664908606548006810F00700A842E6
:1022700001D0012025E02078400707D555480068A7
:1022800030F4E060E16808435249086020780007B4
:1022900008D55048006830F46050216950EAC10008
:1022A0004C49086000F00EF855494A4A1268C2F3DA
:1022B0000312895CC840494908600020FFF722FCEE
:1022C000002070BD70B586B001A84E491022FFF7FE
:1022D000ADFC4D480088ADF800000021002200232D
:1022E000002400203B4D2D68290011F00C05042D21
:1022F00002D0082D03D01DE0374D28001CE001ADB1
:10230000C1F38346AD5D2C00CD030DD56D46314E36
:102310003668C6F34046AD5D2A002F4D05FB04F537
:10232000B5FBF2F52B0003E0384D05FB04F52B005F
:10233000180001E0284D280006B070BD274800684D
:10234000704780B5FFF7FAFF3149224A1268C2F39D
:102350000222895CC84002BD80B5FFF7EFFF2C491F
:102360001C4A1268C2F3C222895CC84002BD0F2217
:102370000260184A126812F003024260154A12689D
:1023800012F0F0028260134A126812F4E062C26036
:10239000104A1268D20812F4E0620261174A126809
:1023A00012F007020A60704781B00C490968C90839
:1023B0004FF47A72B1FBF2F101FB00F1009100BF22
:1023C00000994A1E00920029F9D101B0704700001F
:1023D000001002400410024000127A0004000020A5
:1023E0002410024000004242800442421C1002407D
:1023F0000070004020100240600042420020024075
:1024000074380008643800088E0F000800093D0089
:10241000B838000810B50400002C01D1012034E0C8
:10242000A0690028FFD194F83900002805D10020C8
:1024300084F838002000FEF720FC242084F83900BE
:102440002068C06830F400502168C860200000F0A7
:10245000F1F82068006930F4904021680861206834
:1024600040697FF02A010840216848612068C068FF
:1024700050F400502168C8600020E063202084F8F8
:102480003900202084F83A00002010BD73B5040004
:10249000150094F83A00202851D10198002802D064
:1024A000ADB2002D01D101204AE094F83800012896
:1024B00001D1022044E0012084F838000198A06294
:1024C000A5850020E063222084F83A000FF279000D
:1024D000616B88620FF2B900616BC8620FF2C100D4
:1024E000616B08630020616B486301A80600ADB210
:1024F0002B0032682068011D606BFEF7BDFF0020D5
:102500000090206800680090206840680090009863
:10251000002084F838002068C06850F4807021687A
:10252000C8602068406950F0010021684861206857
:10253000406950F0400021684861002000E002201E
:1025400076BD70477047704738B50400656A2068EB
:102550000068800617D40020E8852868C06830F439
:1025600080702968C8602868406940084000296870
:102570004861286840697FF0400108402968486147
:10258000202085F83A002800FFF7DBFF31BD00006E
:1025900038B50400656A2800FFF7D4FF31BD00009C
:1025A00070B504000025666A30684069C00910F003
:1025B0000100050096F83900212806D1002D04D02D
:1025C0000020F084300000F019F83068406980097C
:1025D00010F00100050096F83A00222806D1002DDF
:1025E00004D00020F085300000F013F8F06B50F0BC
:1025F0001000F0633000FFF7A6FF70BD0168C968E6
:102600007FF0C00211400268D160202180F83910AB
:1026100070470168C96831F490710268D16001683F
:1026200049694908490002685161202180F83A103F
:10263000704700002DE9F843040000252068006978
:1026400030F44050E168084321680861A0682169BE
:1026500008436169084305432068C0685C49084035
:1026600028432168C8602068406930F44070A1693F
:1026700008432168486120685649884252D1FFF7D3
:102680006BFE8146FFF768FE8046FFF765FE070098
:10269000FFF762FE0600FFF75FFE192101FB09F15B
:1026A00062689200B1FBF2F16422B1FBF2F11922EF
:1026B00002FB08F263689B00B2FBF3F2192303FBF1
:1026C00007F36768BF00B3FBF7F36427B3FBF7F3C7
:1026D000642707FB1322120132326423B2FBF3F2A8
:1026E00012F0F00212EB0111192202FB06F26368EC
:1026F0009B00B2FBF3F21923584363689B00B0FBC5
:10270000F3F06423B0FBF3F0642303FB102000011B
:1027100032306422B0FBF2F010F00F004018216854
:10272000886051E0FFF70DFE8146FFF70AFE804604
:10273000FFF707FE0700FFF704FE0600FFF701FEA4
:10274000192101FB09F162689200B1FBF2F16422E8
:10275000B1FBF2F1192202FB08F263689B00B2FBA5
:10276000F3F2192303FB07F36768BF00B3FBF7F32A
:102770006427B3FBF7F3642707FB132212013232FD
:102780006423B2FBF3F212F0F00212EB01111922F2
:1027900002FB06F263689B00B2FBF3F21923584375
:1027A00063689B00B0FBF3F06423B0FBF3F0642399
:1027B00003FB1020000132306422B0FBF2F010F075
:1027C0000F00401821688860BDE8F1830000000018
:1027D000F3E9FFFF0038014010B50400002C01D1DF
:1027E000012014E094F83D00002805D1002084F871
:1027F0003C00200000F00CF8022084F83D00211D70
:10280000206800F0D4F8012084F83D00002010BDBD
:10281000704701000868C06850F001000A68D06085
:102820000868006850F001000A68106000207047D6
:1028300010B504002068006980071AD52068C068B8
:10284000800716D57FF002002168086101202077FB
:102850002068806910F0030F03D0200000F0A4F876
:1028600005E0200000F09FF8200000F09EF8002016
:1028700020772068006940071AD52068C0684007A3
:1028800016D57FF0040021680861022020772068B7
:10289000806910F4407F03D0200000F085F805E047
:1028A000200000F080F8200000F07FF80020207762
:1028B0002068006900071AD52068C068000716D58F
:1028C0007FF0080021680861042020772068C06933
:1028D00010F0030F03D0200000F066F805E02000A0
:1028E00000F061F8200000F060F8002020772068F8
:1028F0000069C0061AD52068C068C00616D57FF0EA
:10290000100021680861082020772068C06910F451
:10291000407F03D0200000F047F805E0200000F0E1
:1029200042F8200000F041F800202077206800697C
:10293000C0070AD52068C068C00706D57FF001002F
:10294000216808612000FFF7D3F8206800690006BD
:102950000AD52068C068000606D57FF0800021688F
:102960000861200000F0A5FC2068006940060AD537
:102970002068C068400606D57FF0400021680861E5
:10298000200000F013F82068006980060AD520684E
:10299000C068800606D57FF020002168086120000D
:1029A00000F086FC10BD70477047704770470022EA
:1029B00003681A00194B984208D0B0F1804F05D037
:1029C000174B984202D0174B984204D17FF0700306
:1029D0001A404B681A43114B984208D0B0F1804F0F
:1029E00005D00F4B984202D00E4B984203D132F4DF
:1029F0004072CB681A437FF080031A404B691A4338
:102A000002608B68C3620B688362044B984201D1F9
:102A10000B6903630123436170470000002C0140F0
:102A200000040040000800402DE9F04F85B004008C
:102A30000D0016001F00DDF83880DDF83C90B6B2BE
:102A4000B00000F039FC8346BBF1000F0DD05420DC
:102A500000F032FC8246BAF1000F02D0CAF830B062
:102A600005E0584600F0B5FC01E000208246BAF1CE
:102A7000000F14D000200390CDF808A0CDF80490EA
:102A8000CDF800803B00B6B232002900200000F0F3
:102A90000DF8504600F06EF80120049002E05FF05F
:102AA000FF300490049805B0BDE8F08F2DE9F14F98
:102AB0000C0015001E000A9FDDF82C80DDF8309018
:102AC000D9F8300000EB8500001F82465FEADA0A81
:102AD0005FEACA0A1AF00700002807D0502080F3E6
:102AE0001188BFF34F8FBFF36F8FFEE7002083463F
:102AF000BBF1100F0CD214F80B0009EB0B0181F89D
:102B0000340014F80B00002802D01BF1010BEFE792
:102B1000002089F84300072F01D306200700C9F8D9
:102B20002C70C9F844700020C9F8480019F104005D
:102B300000F013FD19F1180000F00FFDC9F8109016
:102B4000D7F10700C9F81800C9F824900020C9F887
:102B50004C00002089F8500032000099504600F0E7
:102B6000D5FAC9F80000B8F1000F01D0C8F80090FC
:102B7000BDE8F18F10B5040000F031FBDFF8C803A9
:102B80000068401CDFF8C0130860DFF8C00300686D
:102B900000280AD1DFF8B4030460DFF8AC03006852
:102BA000012811D100F0ECF90EE0DFF8A403006871
:102BB000002809D1E06ADFF894130968C96A8842DD
:102BC00002D3DFF888030460DFF888030068401C44
:102BD000DFF880130860DFF8A40300680121E26ACF
:102BE00091400843DFF894130860211DDFF8E803E3
:102BF000E26A14235A43104400F0B2FC00F00CFBCC
:102C0000DFF84C03006800280FD0DFF840030068AD
:102C1000C06AE16A884208D25FF08050DFF89414FD
:102C20000860BFF34F8FBFF36F8F10BD1CB5DFF887
:102C3000940401900020009000238022DFF8881483
:102C40000FF21530FFF7F0FE0400012C16D15020D2
:102C500080F31188BFF34F8FBFF36F8F5FF0FF30AA
:102C6000DFF8681408600120DFF8E4120860002033
:102C7000DFF86014086000F06EFA0AE014F1010F4A
:102C800007D1502080F31188BFF34F8FBFF36F8FB0
:102C9000FEE713BDDFF8F0030068401CDFF8E8131F
:102CA0000860704770B500240025DFF8DC03006879
:102CB000002807D1502080F31188BFF34F8FBFF356
:102CC0006F8FFEE700F08BFADFF8BC030068401E50
:102CD000DFF8B4130860DFF8B003006800285CD1A7
:102CE000DFF864020068002857D0DFF8D4030068DA
:102CF00000282AD0DFF8C803C068C068040014F1B7
:102D0000180000F039FC201D00F036FCDFF86C02E2
:102D100000680121E26A91400843DFF86012086010
:102D2000211DDFF8B402E26A14235A43104400F074
:102D300017FCE06ADFF814120968C96A8842D4D324
:102D40000120DFF8A0130860CFE7002C01D000F0CD
:102D500083F9DFF87C030668002E0ED000F021F81E
:102D6000002803D00120DFF87C130860761E002EB7
:102D7000F4D10020DFF858130860DFF8680300681A
:102D800000280AD0012005005FF08050DFF82C13E6
:102D90000860BFF34F8FBFF36F8F00F03DFA28003C
:102DA00070BD2DE9F0410026DFF8DC020068002844
:102DB00040F07F80DFF81C030068471CDFF8140335
:102DC0000760002F24D1DFF8100300680068002896
:102DD00007D0502080F31188BFF34F8FBFF36F8F60
:102DE000FEE7DFF8F40200688046DFF8F0020068D2
:102DF000DFF8E4120860DFF8E402C0F80080DFF8D2
:102E0000E0020068401CDFF8D812086000F024F9E6
:102E1000DFF8B802006887423ED3DFF8BC020068E2
:102E20000068002805D15FF0FF30DFF8A0120860CD
:102E300032E0DFF8A4020068C068C068040060687F
:102E40000500AF4203D2DFF88402056024E0201DB4
:102E500000F092FBA06A002803D014F1180000F0E3
:102E60008BFBDFF8180100680121E26A91400843FA
:102E700042490860211DDFF86001E26A14235A43C9
:102E8000104400F06DFBE06A30490968C96A884265
:102E9000C3D301200600C0E7DFF83C012B490968D5
:102EA000C96A142251434058022809D30120060060
:102EB00006E0DFF81C020068401CDFF8141208600E
:102EC000DFF820020068002801D001200600300051
:102ED000BDE8F081DFF8B0010068002804D00120CF
:102EE000DFF8001208602EE00020DFF8F81108601B
:102EF00022490968B1FA81F1D1F11F010800364970
:102F0000142202FB00F28958002907D1502181F3D5
:102F10001188BFF34F8FBFF36F8FFEE72E4A142344
:102F200003FB00F31A4411004A6852684A604A6879
:102F300011F108039A4202D14A6852684A6049680E
:102F4000C968024A11607047341700202417002016
:102F5000401700205017002010B5040000F040F882
:102F60001D4800680228F9D35FF08050DFF87C111B
:102F70000860BFF34F8FBFF36F8FEFE73C17002060
:102F800010B500200400072C08D21348142101FBBF
:102F900004F1084400F0D2FA641CF4E7DFF85001B1
:102FA00000F0CCFADFF84C0100F0C8FADFF81001AD
:102FB00000F0C4FA094800F0C1FA3F4800F0BEFA38
:102FC000DFF82C01DFF810110860DFF82801DFF8C6
:102FD0002811086010BD000010140020CC1600203D
:102FE00038B5DFF81801006800282BD0FFF752FE33
:102FF000DFF80C010068002801D1012400E0002462
:10300000FFF750FE002CECD100F0E9F8DFF8F000FB
:10301000C068C0680500281D00F0AEFADFF8C800DF
:103020000068401EDFF8C0100860DFF8D0000068BC
:10303000401EDFF8C810086000F0EEF8280000F02D
:1030400002F8CEE731BD10B50400206B00F0C1F9E5
:10305000200000F0BEF910BDDFF87C100968096897
:10306000002905D15FF0FF31DFF86020116009E031
:10307000DFF864100968C968C96808004168DFF8AA
:103080004C201160704700005C170020DFF87410BE
:103090000968002902D10121080009E0DFF8681061
:1030A0000968002902D10221080001E0002108007E
:1030B0007047000004ED00E0E016002004ED00E0A1
:1030C000B816002058170020C038000854170020F8
:1030D0004417002038170020281700202C17002044
:1030E0004C170020481700203417002004ED00E0A2
:1030F00090160020A41600202C1700203017002066
:10310000CC160020401700205C170020001F5FF045
:1031100080730360001F4B085B000360001F0FF209
:103120000D03036014380260203870475748006868
:1031300010F1010F07D0502080F31188BFF34F8F9B
:10314000BFF36F8FFEE7502080F31188BFF34F8FDE
:10315000BFF36F8FFEE700B583B04D480178019152
:10316000FF21017001788DF800109DF8001011F01A
:103170005001484A11700721474A11609DF800101C
:1031800009060AD544490968491E434A11609DF859
:10319000001049008DF80010F0E73F490968090266
:1031A0003D4A11603C49096811F4E0613A4A1160F6
:1031B000019901703948006850F47000374908607F
:1031C0003648006850F070403449086000F051F80B
:1031D00000202E49086000F016FA00200EBD502095
:1031E00080F31188BFF34F8FBFF36F8F27480068BC
:1031F000401C264908602548006801280BD1284852
:103200000068000607D0502080F31188BFF34F8F6D
:10321000BFF36F8FFEE770471C480068002807D196
:10322000502080F31188BFF34F8FBFF36F8FFEE7FD
:1032300016480068401E15490860144800680028B8
:1032400002D1002080F31188704780B5502080F3B0
:103250001188BFF34F8FBFF36F8FFFF7A2FD0028D8
:1032600003D05FF080500E490860002080F3118881
:1032700001BD0C4800684FF47A71B0FBF1F0401EBC
:1032800009490860072009490860704700000020CC
:1032900000E400E0601700201C17002020ED00E093
:1032A00004ED00E00400002014E000E010E000E085
:1032B00070477047000000002DE9F04104005FF006
:1032C0000008FFF7E7FC96480068002801D100F0ED
:1032D000BDF89448006804426AD1002C15D0924889
:1032E0000068041914F0070F0FD014F1080014F04F
:1032F0000701441A14F0070F07D0502080F31188FB
:10330000BFF34F8FBFF36F8FFEE7002C50D087487D
:103310000068A0424CD38648060085480068050036
:103320006868A04205D22868002802D02E002D68C7
:10333000F6E77B48006885423AD030687A490968E8
:103340000844804628683060774800684000696813
:10335000091B884215D205EB0400070017F007008F
:10336000002807D0502080F31188BFF34F8FBFF3A0
:103370006F8FFEE76868001B78606C60380000F0B3
:103380009CF86A4800686968401A6849086067489C
:10339000006868490968884203D264480068654942
:1033A000086068685F490968084368600020286011
:1033B000FFF778FC18F00700002807D0502080F3B2
:1033C0001188BFF34F8FBFF36F8FFEE74046BDE814
:1033D000F08170B504002600002C36D052480068F9
:1033E00040420644350068684E490968084207D1E2
:1033F000502080F31188BFF34F8FBFF36F8FFEE72C
:103400002868002807D0502080F31188BFF34F8F21
:10341000BFF36F8FFEE7686842490968084214D01D
:103420002868002811D168683E49096888436860A7
:10343000FFF730FC3D480068696808183B490860A0
:10344000280000F03AF8FFF72DFC70BD30B44FF4BF
:103450004063394C220012F0070F05D0D21DD2086C
:10346000D2009B1A344CE3181100314C2160002427
:103470002F4D6C605C1822002B4C2468121BD20864
:10348000D200274C22600024254D2D686C6000245A
:10349000234D2D682C600800141A4460204C2468C9
:1034A00004604468234D2C604468204D2C605FF01C
:1034B00000441C4D2C6030BC704710B41C4B1A00EB
:1034C0001368834201D21268FAE7110053680B4473
:1034D000834204D153684468E3185360100001002C
:1034E00043680B441468A34211D113680C4C246840
:1034F000A34208D0436814686468E3184360136803
:103500001B68036005E0064B1B68036001E013685D
:103510000360824200D0106010BC704700000000C1
:103520000417002010170020C838000808170020D2
:10353000F41600200C1700201004002010F10801E0
:1035400041605FF0FF31816010F10801C16010F14E
:10355000080101610021016070470021016170478D
:1035600042684A6093688B60936859609160086113
:1035700003685B1C03607047010008698A684B6838
:103580009A604A688B685A6042688A4201D18A68A8
:10359000426000220A610268521E026000687047A1
:1035A000EFF30980BFF36F8F1D4B1A6820E9F00F0E
:1035B000106008B54FF0500080F31188BFF34F8FB3
:1035C000BFF36F8FFFF786FC4FF0000080F3118888
:1035D000BDE8084019680868B0E8F00F80F3098872
:1035E000BFF36F8F70470E4B19680868B0E8F00F93
:1035F00080F30988BFF36F8F4FF0000080F31188CC
:103600004EF00D0E704707480068006880F3088888
:1036100062B661B6BFF34F8FBFF36F8F00DF00005C
:103620002417002008ED00E01348006850F0010066
:103630001149086011480068114908400F490860A5
:103640000D4800680F4908400B4908600A480068A7
:1036500030F48020084908600848006830F4FE0013
:10366000064908605FF41F00074908605FF00060CA
:103670000649086070470000001002400410024034
:103680000000FFF8FFFFF6FE0810024008ED00E022
:103690007047FEE7FEE7FEE7FEE7704780B5FEF7FE
:1036A00016FB01BD80B50E48FDF733FF01BD80B5A7
:1036B0000C48FDF72EFF01BD80B50B48FCF7C1FF9C
:1036C00001BD80B50848FCF7BCFF01BD80B50648C8
:1036D000FCF7B7FF01BD80B50448FFF7A9F801BDAD
:1036E000E0140020241500209C140020E815002080
:1036F00019E050F8041BCB0744BFA9F10103591886
:10370000121F0023042A41F8043BF9D25FEA827CAD
:103710000B4604D54FF0000CA1F800C09B1CD1074C
:1037200044BF0021197050F8042B002AE1D17047E2
:10373000463A5C4E65772053616C6520537973740B
:10374000656D5C436F64655C4D61737465725C5359
:1037500072635C73746D3332663178785F68616C64
:103760005F6D73702E630000463A5C4E65772053A0
:10377000616C652053797374656D5C436F64655C3F
:103780004D61737465725C5372635C6D61696E2E1A
:103790006300000010B450F8041B79B1026843685C
:1037A00002440830DC0744BFA9F10104E31852F8D1
:1037B000044B43F8044B091FF9D1ECE710BC7047E8
:1037C00010B5074979441831064C7C44163404E09E
:1037D0000A68081D114488470146A142F8D110BD6E
:1037E000080000002800000009FFFFFF541300003C
:1037F00010040020000000009DFFFFFF0C000000EF
:10380000AC000000000000200000000000F00BF8F9
:10381000002801D0FFF7D4FF0020C046C046FDF7C6
:1038200059FF00F002F80120704700F001B80000D5
:103830000746384600F002F8FBE7000080B5C046B6
:10384000C046024A11001820ABBEFBE7260002006A
:1038500094380008511A0008000000000000000021
:103860008000000002030405060708090A0B0C0D7E
:103870000E0F101000000000000000000102030401
:103880000607080901488047014800472936000813
:10389000A138000864656661756C745461736B00CF
:1038A000C046C046C046C046FFF7B0FFAAAAAAAAB3
:1038B00000A24A0402030101000000000102030407
:1038C00049444C450000000008000000FFF7FEBF1F
:1038D000FFF7FEBFFFF7FEBFFFF7FEBFFFF7FEBF1C
:1038E000FFF7FEBFFFF7FEBFFFF7FEBFFFF7FEBF0C
:1038F000FFF7FEBFFFF7FEBFFFF7FEBFFFF7FEBFFC
:10390000FFF7FEBFFFF7FEBFFFF7FEBFFFF7FEBFEB
:10391000FFF7FEBFFFF7FEBFFFF7FEBFFFF7FEBFDB
:10392000FFF7FEBFFFF7FEBFFFF7FEBFFFF7FEBFCB
:10393000FFF7FEBFFFF7FEBFFFF7FEBFFFF7FEBFBB
:10394000FFF7FEBFFFF7FEBFFFF7FEBFFFF7FEBFAB
:10395000FFF7FEBFFFF7FEBFFFF7FEBFFFF7FEBF9B
:04000005080038A116
:00000001FF
